:020000040800F2
:10000000FCFF0120790C00001D0C00001D0C0000FD
:100010001D0C00001D0C00001D0C00001D0C00003C
:100020001D0C00001D0C00001D0C00001D0C00002C
:100030001D0C00001D0C00001D0C00001D0C00001C
:100040001D0C00001D0C00001D0C00001D0C00000C
:100050001D0C00001D0C00001D0C00001D0C0000FC
:100060001D0C00001D0C00001D0C00001D0C0000EC
:100070001D0C00001D0C00001D0C00001D0C0000DC
:100080001D0C00001D0C00001D0C00001D0C0000CC
:100090001D0C00001D0C00001D0C00001D0C0000BC
:1000A0001D0C00001D0C00001D0C00001D0C0000AC
:1000B0001D0C00001D0C00001D0C00001D0C00009C
:1000C0001D0C00001D0C00001D0C00001D0C00008C
:1000D0001D0C00001D0C00001D0C00001D0C00007C
:1000E0001D0C00001D0C00001D0C00001D0C00006C
:1000F0001D0C00001D0C00001D0C00001D0C00005C
:100100001D0C00001D0C00001D0C00001D0C00004B
:100110001D0C00001D0C00001D0C00001D0C00003B
:100120001D0C00001D0C00001D0C00001D0C00002B
:100130001D0C00001D0C00001D0C00001D0C00001B
:100140001D0C00001D0C00001D0C00001D0C00000B
:100150001D0C00001D0C00001D0C00001D0C0000FB
:100160001D0C00001D0C00001D0C00001D0C0000EB
:100170001D0C00001D0C00001D0C00001D0C0000DB
:100180001D0C00001D0C000081B01E4900EA010199
:100190000846002212E001202CE002202AE0042080
:1001A00028E0082026E0102024E0202022E0402043
:1001B00020E080201EE040F200101BE0124988423F
:1001C000E9D012498842E8D011498842E7D0114964
:1001D0008842E6D010498842E5D010498842E4D0F0
:1001E0000F498842E3D00F498842E2D00E49884245
:1001F000E1D010460D49096841EA00020B490A6046
:1002000001B0704700FCFFFF000002400004024004
:1002100000080240000C024000100240001402409E
:1002200000180240001C024000200240303802400A
:1002300084B0CDF800E08DB21646864B00EA030389
:100240001F461846FFF7A0FFB5F1FF0F20D13C680D
:10025000814B04EA03031846804B9E4214D145F2B9
:10026000555340EA03033B603D1D2C686FF0FF03CC
:1002700004EA03032B6007F208052C684FF6FF73AE
:1002800044EA03032B60E1E0422E01D13860DDE057
:100290004FF6FF739D4213D1704B9E420BD14FF02E
:1002A00055333B603C1D0023236007F208044FF0E8
:1002B000FF332360CAE0422E02D100233B60C5E039
:1002C00006F001030BB103200AE006F008030BB1AE
:1002D000022005E006F004030BB1012000E000203D
:1002E00006F401230BB103210AE006F400630BB10D
:1002F000022105E006F480630BB1012100E000213A
:1003000006F020030BB1012200E0002206F4807306
:100310000BB1022305E006F080030BB1012300E0DE
:10032000002340F2000A01921FFA85F9B046064602
:1003300018460A460199BAF1100F80F087804FF0F5
:10034000010303FA0AF409EA0403A34240F07B80A4
:100350004FEA4A044FF00303A340DC433B682340C9
:100360003B604FEA4A0306FA03F43B6823433B60D1
:1003700008F00C033BB307F208054FEA4A044FF0BC
:100380000303A340DC432B6823402B6007F20805DE
:100390004FEA4A0302FA03F42B6823432B603D1D06
:1003A0001FFA8AF44FF00103A340DC432B6823407B
:1003B0002B603D1D1FFA8AF48BB203FA04F4A4B239
:1003C0002B6823432B6007F20C051FFA8AF35C00AD
:1003D000A4B24FF00303A340DC432B6823402B60FF
:1003E00007F20C054FEA4A0300FA03F42B68234393
:1003F0002B6008F0080333B308F470031B0D8DF86D
:100400000C30BAF1070F05D907F224030293AAF1C1
:10041000080503E007F2200302935546AC004FF0B5
:100420000F03A340DC43029B1B6803EA0404029B06
:100430001C609DF80C40AB009C40029B1B6843EA8B
:100440000404029B1C600AF1010A74E7DDF800E075
:1004500004B0704700FCFFFF0000FFFF140008001D
:1004600083B0CDF800E0044604F0FF031A091046FB
:1004700003F00F029446220A02F00F0293461AE09C
:100480002D4A029229E02D4A029226E02C4A02923D
:1004900023E02C4A029220E02B4A02921DE02B4AD4
:1004A00002921AE02A4A029217E02A4A029214E0C3
:1004B000294A029211E00028E2D00128E3D0022864
:1004C000E4D00328E5D00428E6D00528E7D00628A4
:1004D000E8D00728E9D00828EAD0012212B202FAAF
:1004E0000CF2ADF8042002980A46BDF80410FFF79C
:1004F0009FFE029A02F22001BCF1070F08D90A1DE3
:100500001046ACF10802114601910146019800E045
:10051000604683004FF00F029A40D3430A681A40A6
:100520000A6082000BFA02F30A681A430A60DDF8D7
:1005300000E003B0704700BF00000240000402402A
:1005400000080240000C024000100240001402406B
:1005500000180240001C02400020024001480068D0
:10056000704700BF1800002081B00268C2F340113C
:1005700001B9FAE7011D096888B201B07047FFFFB1
:1005800083B0CDF800E00024A10041180968B1F162
:10059000FF3F14D000F23401A300C91809680A46CD
:1005A000C11809680190ADF8084008461146FFF7E8
:1005B00057FFBDF808400198641CA4B2E4E7DDF8D9
:1005C00000E003B07047FFFF81B0ADF800100146B6
:1005D000BDF800000B68C3F3C01202B9FAE70A1DA8
:1005E000106001B07047FFFF81B00168C1F3401097
:1005F00001B0704781B00168C1F3801001B070474D
:1006000082B0CDF800E0034619460191FFF7A6FF3E
:1006100040F2E83100FB01F201990A6017490968CC
:1006200001F0F0010A09164989180878C0B21A1DAC
:100630001968C14011601149096801F4E0518A0A42
:100640000F4989180878C0B203F20802191D096819
:10065000C14011600949096801F460414A0B084929
:1006600089180978C8B203F20C02191D0968C14043
:100670001160DDF800E002B0704700BF08380240AA
:100680000700002081B0CDF800E00348FFF7B2FF7B
:10069000DDF800E001B070470044004081B0CDF8C3
:1006A00000E00348FFF760FFDDF800E001B07047AD
:1006B000004C004081B0CDF800E00348FFF79AFFFE
:1006C000DDF800E001B070470048004081B0CDF88F
:1006D00000E00348FFF788FFDDF800E001B0704755
:1006E0000048004081B0CDF800E00348FFF73CFF30
:1006F000DDF800E001B070470048004081B0CDF85F
:1007000000E00348FFF730FFDDF800E001B070477C
:100710000014014081B0CDF800E00348FFF76AFF04
:10072000DDF800E001B070470050004081B0CDF826
:1007300000E00348FFF75EFFDDF800E001B070471E
:100740000014014081B0CDF800E00348FFF74CFFF2
:10075000DDF800E001B070470014014081B0CDF831
:1007600000E00348FFF746FFDDF800E001B0704706
:10077000004C004081B0CDF800E00348FFF734FFA3
:10078000DDF800E001B07047004C004081B0CDF8CA
:1007900000E00348FFF728FFDDF800E001B07047F4
:1007A0000050004081B0CDF800E00348FFF7DCFEC8
:1007B000DDF800E001B070470050004081B0CDF896
:1007C00000E00348FFF710FFDDF800E001B07047DC
:1007D0000044004081B0CDF800E00348FFF7C4FEBC
:1007E000DDF800E001B070470010014081B0CDF8A5
:1007F00000E000260A78D3B20546D8B20C4650B1C4
:10080000C1B22846FFF7E0FE721CD2B2D6B2A218DF
:100810001278D0B2F3E7DDF800E001B07047FFFFD7
:100820008BB0CDF800E09AB2BDF82C300C9E06AC2F
:10083000ADF80430ADF80820039104902046FFF78E
:10084000DFFE04980399BDF80820BDF80430714C10
:10085000A04212D101256DB26F4C25606F4D704CD6
:100860002560704D704C2560704D714C2560714D48
:10087000714C2560099C05946CE0704CA04212D12B
:1008800001256DB26E4C25606E4D654C25606E4D38
:10089000654C25606D4D664C25606D4D664C256040
:1008A000089C059456E06B4CA04212D101256DB214
:1008B000694C2560694D5A4C2560694D5A4C25603C
:1008C000684D5B4C2560684D5B4C2560089C059429
:1008D00040E0664CA04212D101256DB2644C256007
:1008E000644D4F4C2560644D4F4C2560634D504C1A
:1008F0002560634D504C2560089C05942AE0614CAE
:10090000A04212D101256DB25F4C25605F4D444C71
:1009100025605F4D444C25605E4D454C25605E4D25
:10092000454C2560089C059414E05C4CA04211D114
:1009300001256DB25A4C25605A4D394C25605A4DEF
:10094000394C2560594D3A4C2560594D3A4C25603B
:10095000099C0594ADF80430ADF80820039104908B
:100960003046FFF70DFE04980399BDF80820BDF846
:10097000043000F2100500242C6000F210052C68F1
:100980001C432C6000F20C0500242C601AB142F4C8
:10099000806292B2FFE700F20C052C6814432C60D1
:1009A00000F20C060125346865F34D34346000F222
:1009B0000C060125346865F3C304346000F20C06AC
:1009C0000125346865F38204346000F214050024C4
:1009D0002C60059D192465438C00B5FBF4F7642455
:1009E000B7FBF4F42601350964246C433C1B240155
:1009F00004F232056424B5FBF4F404F00F0446EA73
:100A0000040400F20805A4B22C60DDF800E00BB08D
:100A1000704700BF0010014090084742E50B0000FE
:100A200024000020D507000028000020E50A00006F
:100A300020000020B50A00002C00002000440040E7
:100A400044084742FFFFFFFFCD0A0000BD0700003A
:100A5000850600000048004048084742FFFFFFFFAE
:100A6000E5060000CD060000B5060000004C004081
:100A70004C084742FFFFFFFF9D060000750700007E
:100A80005D0700000050004050084742FFFFFFFF95
:100A9000A50700008D0700001507000000140140A5
:100AA00094084742FFFFFFFFFD06000045070000D6
:100AB0002D07000081B0CDF800E00348FFF79AFD54
:100AC000DDF800E001B070470010014081B0CDF8C2
:100AD00000E00348FFF748FDDDF800E001B0704793
:100AE0000044004081B0CDF800E00348FFF77CFDF2
:100AF000DDF800E001B070470010014081B04FF018
:100B000000094FF0000CBDEB0A0F04DCBDEB0B0F2E
:100B100001DBD446EA464BF8049BBBEB0A0FFAD143
:100B2000BCEB0A0F05DDE246D9F800B00BF1040B6F
:100B3000F1E701B07047FFFF81B00D48006840F059
:100B400001010B48016000210A4801600848016862
:100B50000948014006480160084909480160044805
:100B600001686FF4802001400148016001B07047C6
:100B70000038024008380240FFFFF6FE1030002423
:100B80000438024081B01CF8019B0BF8019BBBEBC1
:100B90000A0FF8D101B0704781B0CDF800E0094AE2
:100BA00040F2000104B402B440F2000340F200023B
:100BB00001460548FFF734FE02B0DDF800E001B061
:100BC000704700BF381000000010014081B0CDF820
:100BD00000E0034C2468A047DDF800E001B0704756
:100BE0002000002081B0CDF800E081B20348FFF77B
:100BF000EBFCDDF800E001B0704700BF00100140E1
:100C000081B0CDF800E001460348FFF7EFFDDDF8C5
:100C100000E001B0704700BF0010014081B0FEE766
:100C200001B0704781B04EF68850CEF200000168E6
:100C300041F47001016000BF00BF00BF00BFF1EED2
:100C4000100A40F44000E1EE100A01B07047FFFFC7
:100C500081B004490448016004490548016001B0BD
:100C6000704700BF803E0000180000200300000015
:100C70001C000020FFFFFFFF00F02EF8FFF7D2FF5F
:100C800000F05CFAFFF7E4FF00F018FA4FF4E130EF
:100C9000FFF782FF42F25337C0F2080700BF00BFE0
:100CA0007F1EFDD100BF00BF00BF00BF0948FFF796
:100CB000A7FF0D20FFF796FF0A20FFF793FFFFF72E
:100CC00085FF20B1FFF786FDC0B2FFF78BFFF6E787
:100CD000FEE700BF0000002082B0CDF800E0924A9D
:100CE000924B934C93489449032840F03C8093489E
:100CF000814206D99248006840F0050190480160A1
:100D000030E09048814206D98D48006840F00401E7
:100D10008B48016026E08C48814206D988480068EB
:100D200040F00301864801601CE04EF660208142DD
:100D300006D98348006840F002018148016011E053
:100D400047F23050814206D97D48006840F00101E9
:100D50007B48016006E07A4801686FF007000140B7
:100D6000774801600CE1022840F0468077488142D4
:100D700006D97348006840F00601714801603AE006
:100D80007048814206D96E48006840F005016C4801
:100D9000016030E06E48814206D96948006840F041
:100DA00004016748016026E06A48814206D9644828
:100DB000006840F00301624801601CE04BF680309F
:100DC000814206D95E48006840F002015C4801603B
:100DD00011E045F6C050814206D95948006840F0FC
:100DE00001015748016006E0554801686FF00700AF
:100DF000014053480160C3E0012840F05180514850
:100E0000814206D94E48006840F007014C48016015
:100E100045E05148814206D94948006840F0060142
:100E2000474801603BE04848814206D94448006891
:100E300040F005014248016031E04648814206D950
:100E40003F48006840F004013D48016027E04DF252
:100E5000F020814206D93A48006840F00301384842
:100E600001601CE048F6A040814206D93448006881
:100E700040F002013248016011E044F250608142CA
:100E800006D92F48006840F001012D48016006E0B6
:100E90002B4801686FF007000140294801606FE0AE
:100EA000002840F06D802D48814206D92448006812
:100EB00040F007012248016062E02548814206D9DE
:100EC0001F48006840F006011D48016058E02448B2
:100ED000814206D91A48006840F0050118480160AF
:100EE0004EE0B1F57A4F06D91548006840F004018C
:100EF0001348016044E04BF68030814206D9104827
:100F0000006840F003010E48016039E0B1F5FA4F86
:100F100006D90B48006840F00201094801602FE043
:100F2000B1F57A5F25D91DE08100000010000004B2
:100F30000000000003000000803E0000F0490200B5
:100F4000003C0240C0D40100905F010080320200EA
:100F50000077010040190100E0A5010080B5010003
:100F6000803801002D48006840F001012B480160E5
:100F700006E02A4801686FF0070001402748016039
:100F8000012149B22648016026480160FFF7D4FDDF
:100F90002548036025480460254802EA00012548E9
:100FA000016002F0010040B121462248006800F0D3
:100FB0000200002800D1F8E700E0214602F480306A
:100FC00048B11C48006800F4003000B9F9E701920C
:100FD0000A46019902E001911146019A01F08070E0
:100FE00070B11448006840F08071124801601146E9
:100FF0001048006800F0007000B9F9E70A46FFE702
:101000000A48006800F00C01900000F00C008142DA
:1010100000D0F5E7DDF800E002B07047003C024088
:10102000208047422480474204380240083802406A
:10103000FFFF0F0000380240090700000A07000008
:10104000FFFFFFFF000000000000000000000000A4
:101050000000000000000000000000000000000090
:101060000000000000000000000000001810000058
:101070001810000000000000000000000000000048
:101080000000000000000000000000000000000060
:101090000000000000000000000000000000000050
:1010A0000000000048656C6C6F210000000000012A
:1010B0000203040102030406070809FF00B5DFF874
:1010C00014B0DFF814A0DFF814C0FFF75BFD00BD1B
:1010D000704700BF0000002017000020A41000008F
:1010E000FFFFFFFFFFFFFFFFFFFFFFFFFFFFFFFF10
:1010F000FFFFFFFFFFFFFFFFFFFFFFFFFFFFFFFF00
:10110000FFFFFFFFFFFFFFFFFFFFFFFFFFFFFFFFEF
:10111000FFFFFFFFFFFFFFFFFFFFFFFFFFFFFFFFDF
:10112000FFFFFFFFFFFFFFFFFFFFFFFFFFFFFFFFCF
:10113000FFFFFFFFFFFFFFFFFFFFFFFF00B5DFF82F
:1011400010B0DFF810A0FFF7D9FC00BD704700BF5A
:101150000000002030000020FFFFFFFFFFFFFFFF27
:00000001FF
